:0B0000000201D0208201321200833286
:05001300D221C284327D
:10007000758901758CFF758A84D28C308DFDC28D97
:10008000D28422C0E0E54004F540D0E022E540C340
:0E00900094054007C285754000D22222E5206B
:0F009E00B400237409F52008E521B4001C74098F
:0F00AD00F52108E522B400157409F52208E523B2
:1000BC00B400047409F523221520221521221522DF
:1000CC0022118D18E5F003F5F0E69375A0FFF5907D
:1000DC0085F0A0B820EBD28522D280D281D28222A8
:1000EC00C280120185D28022C281120114D28122D7
:1000FC00C2821201ACD28222C280120164D280224E
:0E010C00C282120164D2822275200375210086
:0F011A00752200752300202134782411CD117037
:0F0129007820119CE52045214522452370E922CD
:0F013800D2B2202206C28011EC8006C2803104B0
:10014700C222D28022D2B3202106C28211FC800AA9
:10015700D280D281C282310CC221D282227520057F
:0F016700752101752200752300782411CD1170C8
:0F0176007820119CE52045214522452370EC227D
:0F0185007520007521017522007523002021C30C
:0F0194002022AC782411CD11707820119CE52029
:0F01A30045214522452370E6227520077521006E
:0F01B20075220075230020219C782411CD117037
:0F01C1007820119CE52045214522452370E92235
:0F01D0007581607580FF7590FF75A0FF75B0FF9A
:0E01DF00D2AFD2AAD2A8D28AD288D2BAC2B8DF
:0F01ED00754000752000752100752200752300F4
:1001FC00D2B3D2B275F0EE90021011E5313811F491
:0E020C00314C80F6C0F9A4B0999282F880902F
:00000001FF
